{"abi":[{"type":"constructor","inputs":[],"stateMutability":"nonpayable"},{"type":"function","name":"AUDITOR_ROLE","inputs":[],"outputs":[{"name":"","type":"bytes32","internalType":"bytes32"}],"stateMutability":"view"},{"type":"function","name":"BIDDER_ROLE","inputs":[],"outputs":[{"name":"","type":"bytes32","internalType":"bytes32"}],"stateMutability":"view"},{"type":"function","name":"CREATOR_ROLE","inputs":[],"outputs":[{"name":"","type":"bytes32","internalType":"bytes32"}],"stateMutability":"view"},{"type":"function","name":"DEFAULT_ADMIN_ROLE","inputs":[],"outputs":[{"name":"","type":"bytes32","internalType":"bytes32"}],"stateMutability":"view"},{"type":"function","name":"bids","inputs":[{"name":"","type":"uint256","internalType":"uint256"},{"name":"","type":"address","internalType":"address"}],"outputs":[{"name":"bidder","type":"address","internalType":"address"},{"name":"commitment","type":"bytes32","internalType":"bytes32"},{"name":"revealedAmount","type":"uint256","internalType":"uint256"},{"name":"isRevealed","type":"bool","internalType":"bool"},{"name":"timestamp","type":"uint256","internalType":"uint256"}],"stateMutability":"view"},{"type":"function","name":"cancelTender","inputs":[{"name":"_tenderId","type":"uint256","internalType":"uint256"}],"outputs":[],"stateMutability":"nonpayable"},{"type":"function","name":"closeTender","inputs":[{"name":"_tenderId","type":"uint256","internalType":"uint256"}],"outputs":[],"stateMutability":"nonpayable"},{"type":"function","name":"companies","inputs":[{"name":"","type":"address","internalType":"address"}],"outputs":[{"name":"name","type":"string","internalType":"string"},{"name":"registrationId","type":"string","internalType":"string"},{"name":"contactEmail","type":"string","internalType":"string"},{"name":"ipfsHash","type":"string","internalType":"string"},{"name":"isRegistered","type":"bool","internalType":"bool"},{"name":"reputationTotal","type":"uint256","internalType":"uint256"},{"name":"ratingCount","type":"uint256","internalType":"uint256"}],"stateMutability":"view"},{"type":"function","name":"createTender","inputs":[{"name":"_title","type":"string","internalType":"string"},{"name":"_description","type":"string","internalType":"string"},{"name":"_category","type":"uint8","internalType":"enum OpenTender.Category"},{"name":"_ipfsHash","type":"string","internalType":"string"},{"name":"_biddingDuration","type":"uint256","internalType":"uint256"},{"name":"_revealDuration","type":"uint256","internalType":"uint256"},{"name":"_minBid","type":"uint256","internalType":"uint256"}],"outputs":[{"name":"","type":"uint256","internalType":"uint256"}],"stateMutability":"nonpayable"},{"type":"function","name":"getBidDetails","inputs":[{"name":"_tenderId","type":"uint256","internalType":"uint256"},{"name":"_bidder","type":"address","internalType":"address"}],"outputs":[{"name":"revealed","type":"bool","internalType":"bool"},{"name":"amount","type":"uint256","internalType":"uint256"}],"stateMutability":"view"},{"type":"function","name":"getBidsCount","inputs":[{"name":"_tenderId","type":"uint256","internalType":"uint256"}],"outputs":[{"name":"","type":"uint256","internalType":"uint256"}],"stateMutability":"view"},{"type":"function","name":"getCompanyProfile","inputs":[{"name":"_company","type":"address","internalType":"address"}],"outputs":[{"name":"","type":"tuple","internalType":"struct OpenTender.CompanyProfile","components":[{"name":"name","type":"string","internalType":"string"},{"name":"registrationId","type":"string","internalType":"string"},{"name":"contactEmail","type":"string","internalType":"string"},{"name":"ipfsHash","type":"string","internalType":"string"},{"name":"isRegistered","type":"bool","internalType":"bool"},{"name":"reputationTotal","type":"uint256","internalType":"uint256"},{"name":"ratingCount","type":"uint256","internalType":"uint256"}]}],"stateMutability":"view"},{"type":"function","name":"getRoleAdmin","inputs":[{"name":"role","type":"bytes32","internalType":"bytes32"}],"outputs":[{"name":"","type":"bytes32","internalType":"bytes32"}],"stateMutability":"view"},{"type":"function","name":"grantRole","inputs":[{"name":"role","type":"bytes32","internalType":"bytes32"},{"name":"account","type":"address","internalType":"address"}],"outputs":[],"stateMutability":"nonpayable"},{"type":"function","name":"hasRole","inputs":[{"name":"role","type":"bytes32","internalType":"bytes32"},{"name":"account","type":"address","internalType":"address"}],"outputs":[{"name":"","type":"bool","internalType":"bool"}],"stateMutability":"view"},{"type":"function","name":"owner","inputs":[],"outputs":[{"name":"","type":"address","internalType":"address"}],"stateMutability":"view"},{"type":"function","name":"rateBidder","inputs":[{"name":"_tenderId","type":"uint256","internalType":"uint256"},{"name":"_rating","type":"uint256","internalType":"uint256"}],"outputs":[],"stateMutability":"nonpayable"},{"type":"function","name":"registerCompany","inputs":[{"name":"_name","type":"string","internalType":"string"},{"name":"_regId","type":"string","internalType":"string"},{"name":"_email","type":"string","internalType":"string"},{"name":"_ipfsHash","type":"string","internalType":"string"}],"outputs":[],"stateMutability":"nonpayable"},{"type":"function","name":"renounceOwnership","inputs":[],"outputs":[],"stateMutability":"nonpayable"},{"type":"function","name":"renounceRole","inputs":[{"name":"role","type":"bytes32","internalType":"bytes32"},{"name":"callerConfirmation","type":"address","internalType":"address"}],"outputs":[],"stateMutability":"nonpayable"},{"type":"function","name":"revealBid","inputs":[{"name":"_tenderId","type":"uint256","internalType":"uint256"},{"name":"_amount","type":"uint256","internalType":"uint256"},{"name":"_secret","type":"string","internalType":"string"}],"outputs":[],"stateMutability":"nonpayable"},{"type":"function","name":"revokeRole","inputs":[{"name":"role","type":"bytes32","internalType":"bytes32"},{"name":"account","type":"address","internalType":"address"}],"outputs":[],"stateMutability":"nonpayable"},{"type":"function","name":"submitBid","inputs":[{"name":"_tenderId","type":"uint256","internalType":"uint256"},{"name":"_commitment","type":"bytes32","internalType":"bytes32"}],"outputs":[],"stateMutability":"nonpayable"},{"type":"function","name":"supportsInterface","inputs":[{"name":"interfaceId","type":"bytes4","internalType":"bytes4"}],"outputs":[{"name":"","type":"bool","internalType":"bool"}],"stateMutability":"view"},{"type":"function","name":"tenderBidders","inputs":[{"name":"","type":"uint256","internalType":"uint256"},{"name":"","type":"uint256","internalType":"uint256"}],"outputs":[{"name":"","type":"address","internalType":"address"}],"stateMutability":"view"},{"type":"function","name":"tenderCount","inputs":[],"outputs":[{"name":"","type":"uint256","internalType":"uint256"}],"stateMutability":"view"},{"type":"function","name":"tenderRated","inputs":[{"name":"","type":"uint256","internalType":"uint256"}],"outputs":[{"name":"","type":"bool","internalType":"bool"}],"stateMutability":"view"},{"type":"function","name":"tenders","inputs":[{"name":"","type":"uint256","internalType":"uint256"}],"outputs":[{"name":"id","type":"uint256","internalType":"uint256"},{"name":"creator","type":"address","internalType":"address"},{"name":"title","type":"string","internalType":"string"},{"name":"description","type":"string","internalType":"string"},{"name":"category","type":"uint8","internalType":"enum OpenTender.Category"},{"name":"ipfsHash","type":"string","internalType":"string"},{"name":"deadline","type":"uint256","internalType":"uint256"},{"name":"revealDeadline","type":"uint256","internalType":"uint256"},{"name":"minBid","type":"uint256","internalType":"uint256"},{"name":"status","type":"uint8","internalType":"enum OpenTender.TenderStatus"},{"name":"createdAt","type":"uint256","internalType":"uint256"}],"stateMutability":"view"},{"type":"function","name":"transferOwnership","inputs":[{"name":"newOwner","type":"address","internalType":"address"}],"outputs":[],"stateMutability":"nonpayable"},{"type":"function","name":"winners","inputs":[{"name":"","type":"uint256","internalType":"uint256"}],"outputs":[{"name":"bidder","type":"address","internalType":"address"},{"name":"amount","type":"uint256","internalType":"uint256"},{"name":"selectedAt","type":"uint256","internalType":"uint256"}],"stateMutability":"view"},{"type":"event","name":"BidRevealed","inputs":[{"name":"tenderId","type":"uint256","indexed":true,"internalType":"uint256"},{"name":"bidder","type":"address","indexed":true,"internalType":"address"},{"name":"amount","type":"uint256","indexed":false,"internalType":"uint256"}],"anonymous":false},{"type":"event","name":"BidSubmitted","inputs":[{"name":"tenderId","type":"uint256","indexed":true,"internalType":"uint256"},{"name":"bidder","type":"address","indexed":true,"internalType":"address"}],"anonymous":false},{"type":"event","name":"BidderRated","inputs":[{"name":"bidder","type":"address","indexed":true,"internalType":"address"},{"name":"rating","type":"uint256","indexed":false,"internalType":"uint256"},{"name":"newReputationScore","type":"uint256","indexed":false,"internalType":"uint256"}],"anonymous":false},{"type":"event","name":"CompanyRegistered","inputs":[{"name":"company","type":"address","indexed":true,"internalType":"address"},{"name":"name","type":"string","indexed":false,"internalType":"string"}],"anonymous":false},{"type":"event","name":"OwnershipTransferred","inputs":[{"name":"previousOwner","type":"address","indexed":true,"internalType":"address"},{"name":"newOwner","type":"address","indexed":true,"internalType":"address"}],"anonymous":false},{"type":"event","name":"RoleAdminChanged","inputs":[{"name":"role","type":"bytes32","indexed":true,"internalType":"bytes32"},{"name":"previousAdminRole","type":"bytes32","indexed":true,"internalType":"bytes32"},{"name":"newAdminRole","type":"bytes32","indexed":true,"internalType":"bytes32"}],"anonymous":false},{"type":"event","name":"RoleGranted","inputs":[{"name":"role","type":"bytes32","indexed":true,"internalType":"bytes32"},{"name":"account","type":"address","indexed":true,"internalType":"address"},{"name":"sender","type":"address","indexed":true,"internalType":"address"}],"anonymous":false},{"type":"event","name":"RoleRevoked","inputs":[{"name":"role","type":"bytes32","indexed":true,"internalType":"bytes32"},{"name":"account","type":"address","indexed":true,"internalType":"address"},{"name":"sender","type":"address","indexed":true,"internalType":"address"}],"anonymous":false},{"type":"event","name":"TenderCanceled","inputs":[{"name":"tenderId","type":"uint256","indexed":true,"internalType":"uint256"}],"anonymous":false},{"type":"event","name":"TenderClosed","inputs":[{"name":"tenderId","type":"uint256","indexed":true,"internalType":"uint256"},{"name":"winner","type":"address","indexed":true,"internalType":"address"},{"name":"amount","type":"uint256","indexed":false,"internalType":"uint256"}],"anonymous":false},{"type":"event","name":"TenderCreated","inputs":[{"name":"tenderId","type":"uint256","indexed":true,"internalType":"uint256"},{"name":"creator","type":"address","indexed":true,"internalType":"address"},{"name":"title","type":"string","indexed":false,"internalType":"string"},{"name":"category","type":"uint8","indexed":false,"internalType":"enum OpenTender.Category"}],"anonymous":false},{"type":"error","name":"AccessControlBadConfirmation","inputs":[]},{"type":"error","name":"AccessControlUnauthorizedAccount","inputs":[{"name":"account","type":"address","internalType":"address"},{"name":"neededRole","type":"bytes32","internalType":"bytes32"}]},{"type":"error","name":"OwnableInvalidOwner","inputs":[{"name":"owner","type":"address","internalType":"address"}]},{"type":"error","name":"OwnableUnauthorizedAccount","inputs":[{"name":"account","type":"address","internalType":"address"}]},{"type":"error","name":"ReentrancyGuardReentrantCall","inputs":[]}],"bytecode":{"object":"0x608060405234801561000f575f5ffd5b50335f73ffffffffffffffffffffffffffffffffffffffff168173ffffffffffffffffffffffffffffffffffffffff1603610081575f6040517f1e4fbdf700000000000000000000000000000000000000000000000000000000815260040161007891906103c1565b60405180910390fd5b6100908161012f60201b60201c565b5060016100af6100a46101f060201b60201c565b61021960201b60201c565b5f01819055506100c75f5f1b3361022260201b60201c565b506100f87f828634d95e775031b9ff576b159a8509d3053581a8c9c4d7d86899e0afcd882f3361022260201b60201c565b506101297f80f9b792196f21120f021903634877a78a3dd5e8ef643701b99dae7bb938062d3361022260201b60201c565b506103da565b5f5f5f9054906101000a900473ffffffffffffffffffffffffffffffffffffffff169050815f5f6101000a81548173ffffffffffffffffffffffffffffffffffffffff021916908373ffffffffffffffffffffffffffffffffffffffff1602179055508173ffffffffffffffffffffffffffffffffffffffff168173ffffffffffffffffffffffffffffffffffffffff167f8be0079c531659141344cd1fd0a4f28419497f9722a3daafe3b4186f6b6457e060405160405180910390a35050565b5f7f9b779b17422d0df92223018b32b4d1fa46e071723d6817e2486d003becc55f005f1b905090565b5f819050919050565b5f610233838361031760201b60201c565b61030d576001805f8581526020019081526020015f205f015f8473ffffffffffffffffffffffffffffffffffffffff1673ffffffffffffffffffffffffffffffffffffffff1681526020019081526020015f205f6101000a81548160ff0219169083151502179055506102aa61037b60201b60201c565b73ffffffffffffffffffffffffffffffffffffffff168273ffffffffffffffffffffffffffffffffffffffff16847f2f8788117e7eff1d82e926ec794901d17c78024a50270940304540a733656f0d60405160405180910390a460019050610311565b5f90505b92915050565b5f60015f8481526020019081526020015f205f015f8373ffffffffffffffffffffffffffffffffffffffff1673ffffffffffffffffffffffffffffffffffffffff1681526020019081526020015f205f9054906101000a900460ff16905092915050565b5f33905090565b5f73ffffffffffffffffffffffffffffffffffffffff82169050919050565b5f6103ab82610382565b9050919050565b6103bb816103a1565b82525050565b5f6020820190506103d45f8301846103b2565b92915050565b614995806103e75f395ff3fe608060405234801561000f575f5ffd5b50600436106101d7575f3560e01c8063715018a611610102578063a217fddf116100a0578063d547741f1161006f578063d547741f146105b4578063e8a733a2146105d0578063f2fde38b146105ec578063fb1aac3514610608576101d7565b8063a217fddf1461052c578063a2fb11751461054a578063a489d5d71461057c578063b6502b9514610598576101d7565b80638da5cb5b116100dc5780638da5cb5b1461047d57806391d148541461049b5780639b0a9a1a146104cb5780639fc89aed146104fb576101d7565b8063715018a6146104255780637f9490ef1461042f5780638aeda25a1461045f576101d7565b80632f2ff15d1161017a5780633f1ffcec116101495780633f1ffcec146103695780634008f9c01461039d578063465e1def146103cd5780636e1d616e14610407576101d7565b80632f2ff15d146102df578063355e6ce8146102fb57806336568abe146103315780633a74e0701461034d576101d7565b806312aca7d5116101b657806312aca7d51461024557806319fcfab1146102755780631f05877614610291578063248a9ca3146102af576101d7565b8062cda3da146101db57806301ffc9a7146101f75780630ce526d114610227575b5f5ffd5b6101f560048036038101906101f09190612efa565b610638565b005b610211600480360381019061020c9190612f7a565b610b1c565b60405161021e9190612fbf565b60405180910390f35b61022f610b95565b60405161023c9190612ff0565b60405180910390f35b61025f600480360381019061025a9190612efa565b610bb9565b60405161026c9190612fbf565b60405180910390f35b61028f600480360381019061028a9190613033565b610bd6565b005b610299610f7b565b6040516102a69190613080565b60405180910390f35b6102c960048036038101906102c49190613099565b610f81565b6040516102d69190612ff0565b60405180910390f35b6102f960048036038101906102f4919061311e565b610f9e565b005b6103156004803603810190610310919061315c565b610fc0565b60405161032897969594939291906131f7565b60405180910390f35b61034b6004803603810190610346919061311e565b611222565b005b61036760048036038101906103629190612efa565b61129d565b005b610383600480360381019061037e9190613280565b61143a565b6040516103949594939291906132cd565b60405180910390f35b6103b760048036038101906103b29190612efa565b6114a2565b6040516103c49190613080565b60405180910390f35b6103e760048036038101906103e29190612efa565b6114bf565b6040516103fe9b9a999897969594939291906133d7565b60405180910390f35b61040f6116de565b60405161041c9190612ff0565b60405180910390f35b61042d611702565b005b610449600480360381019061044491906135e4565b611715565b6040516104569190613080565b60405180910390f35b610467611a16565b6040516104749190612ff0565b60405180910390f35b610485611a3a565b60405161049291906136d5565b60405180910390f35b6104b560048036038101906104b0919061311e565b611a61565b6040516104c29190612fbf565b60405180910390f35b6104e560048036038101906104e091906136ee565b611ac5565b6040516104f291906136d5565b60405180910390f35b61051560048036038101906105109190613280565b611b0d565b60405161052392919061372c565b60405180910390f35b610534611c1f565b6040516105419190612ff0565b60405180910390f35b610564600480360381019061055f9190612efa565b611c25565b60405161057393929190613753565b60405180910390f35b61059660048036038101906105919190613788565b611c6a565b005b6105b260048036038101906105ad91906136ee565b611fee565b005b6105ce60048036038101906105c9919061311e565b612407565b005b6105ea60048036038101906105e591906137f4565b612429565b005b6106066004803603810190610601919061315c565b612677565b005b610622600480360381019061061d919061315c565b6126fb565b60405161062f91906139dc565b60405180910390f35b805f8111801561064a57506002548111155b610689576040517f08c379a000000000000000000000000000000000000000000000000000000000815260040161068090613a46565b60405180910390fd5b6106916129bf565b5f60035f8481526020019081526020015f20905080600701544210156106ec576040517f08c379a00000000000000000000000000000000000000000000000000000000081526004016106e390613aae565b60405180910390fd5b5f60048111156106ff576106fe61331e565b5b816009015f9054906101000a900460ff1660048111156107225761072161331e565b5b14610762576040517f08c379a000000000000000000000000000000000000000000000000000000000815260040161075990613b16565b60405180910390fd5b5f5f90505f7fffffffffffffffffffffffffffffffffffffffffffffffffffffffffffffffff90505f5f90505f60045f8881526020019081526020015f2080548060200260200160405190810160405280929190818152602001828054801561081d57602002820191905f5260205f20905b815f9054906101000a900473ffffffffffffffffffffffffffffffffffffffff1673ffffffffffffffffffffffffffffffffffffffff16815260200190600101908083116107d4575b505050505090505f5f90505b815181101561096b575f82828151811061084657610845613b34565b5b602002602001015190505f60055f8b81526020019081526020015f205f8373ffffffffffffffffffffffffffffffffffffffff1673ffffffffffffffffffffffffffffffffffffffff1681526020019081526020015f206040518060a00160405290815f82015f9054906101000a900473ffffffffffffffffffffffffffffffffffffffff1673ffffffffffffffffffffffffffffffffffffffff1673ffffffffffffffffffffffffffffffffffffffff1681526020016001820154815260200160028201548152602001600382015f9054906101000a900460ff16151515158152602001600482015481525050905080606001511561095c57858160400151101561095b5780604001519550819650600194505b5b50508080600101915050610829565b508115610a8f5760405180606001604052808573ffffffffffffffffffffffffffffffffffffffff1681526020018481526020014281525060065f8981526020019081526020015f205f820151815f015f6101000a81548173ffffffffffffffffffffffffffffffffffffffff021916908373ffffffffffffffffffffffffffffffffffffffff16021790555060208201518160010155604082015181600201559050506003856009015f6101000a81548160ff02191690836004811115610a3657610a3561331e565b5b02179055508373ffffffffffffffffffffffffffffffffffffffff16877f6a8da3e80c8077fe06cc6c3f48b5c446dc3cd31ea4f93b87799de1498dfd6aa185604051610a829190613080565b60405180910390a3610b0b565b6003856009015f6101000a81548160ff02191690836004811115610ab657610ab561331e565b5b02179055505f73ffffffffffffffffffffffffffffffffffffffff16877f6a8da3e80c8077fe06cc6c3f48b5c446dc3cd31ea4f93b87799de1498dfd6aa15f604051610b029190613ba3565b60405180910390a35b5050505050610b186129e1565b5050565b5f7f7965db0b000000000000000000000000000000000000000000000000000000007bffffffffffffffffffffffffffffffffffffffffffffffffffffffff1916827bffffffffffffffffffffffffffffffffffffffffffffffffffffffff19161480610b8e5750610b8d826129fb565b5b9050919050565b7f80f9b792196f21120f021903634877a78a3dd5e8ef643701b99dae7bb938062d81565b6008602052805f5260405f205f915054906101000a900460ff1681565b815f81118015610be857506002548111155b610c27576040517f08c379a0000000000000000000000000000000000000000000000000000000008152600401610c1e90613a46565b60405180910390fd5b7f80f9b792196f21120f021903634877a78a3dd5e8ef643701b99dae7bb938062d610c5181612a64565b5f60035f8681526020019081526020015f2090505f6004811115610c7857610c7761331e565b5b816009015f9054906101000a900460ff166004811115610c9b57610c9a61331e565b5b14610cdb576040517f08c379a0000000000000000000000000000000000000000000000000000000008152600401610cd290613c06565b60405180910390fd5b80600601544210610d21576040517f08c379a0000000000000000000000000000000000000000000000000000000008152600401610d1890613c6e565b60405180910390fd5b5f60055f8781526020019081526020015f205f3373ffffffffffffffffffffffffffffffffffffffff1673ffffffffffffffffffffffffffffffffffffffff1681526020019081526020015f206004015414610db2576040517f08c379a0000000000000000000000000000000000000000000000000000000008152600401610da990613cd6565b60405180910390fd5b6040518060a001604052803373ffffffffffffffffffffffffffffffffffffffff1681526020018581526020015f81526020015f151581526020014281525060055f8781526020019081526020015f205f3373ffffffffffffffffffffffffffffffffffffffff1673ffffffffffffffffffffffffffffffffffffffff1681526020019081526020015f205f820151815f015f6101000a81548173ffffffffffffffffffffffffffffffffffffffff021916908373ffffffffffffffffffffffffffffffffffffffff16021790555060208201518160010155604082015181600201556060820151816003015f6101000a81548160ff0219169083151502179055506080820151816004015590505060045f8681526020019081526020015f2033908060018154018082558091505060019003905f5260205f20015f9091909190916101000a81548173ffffffffffffffffffffffffffffffffffffffff021916908373ffffffffffffffffffffffffffffffffffffffff1602179055503373ffffffffffffffffffffffffffffffffffffffff16857f14f32a2464bd02d81cc866ab8a4ab09360c685fc8156837dcdf398208674d12b60405160405180910390a35050505050565b60025481565b5f60015f8381526020019081526020015f20600101549050919050565b610fa782610f81565b610fb081612a64565b610fba8383612a78565b50505050565b6007602052805f5260405f205f91509050805f018054610fdf90613d21565b80601f016020809104026020016040519081016040528092919081815260200182805461100b90613d21565b80156110565780601f1061102d57610100808354040283529160200191611056565b820191905f5260205f20905b81548152906001019060200180831161103957829003601f168201915b50505050509080600101805461106b90613d21565b80601f016020809104026020016040519081016040528092919081815260200182805461109790613d21565b80156110e25780601f106110b9576101008083540402835291602001916110e2565b820191905f5260205f20905b8154815290600101906020018083116110c557829003601f168201915b5050505050908060020180546110f790613d21565b80601f016020809104026020016040519081016040528092919081815260200182805461112390613d21565b801561116e5780601f106111455761010080835404028352916020019161116e565b820191905f5260205f20905b81548152906001019060200180831161115157829003601f168201915b50505050509080600301805461118390613d21565b80601f01602080910402602001604051908101604052809291908181526020018280546111af90613d21565b80156111fa5780601f106111d1576101008083540402835291602001916111fa565b820191905f5260205f20905b8154815290600101906020018083116111dd57829003601f168201915b505050505090806004015f9054906101000a900460ff16908060050154908060060154905087565b61122a612b61565b73ffffffffffffffffffffffffffffffffffffffff168173ffffffffffffffffffffffffffffffffffffffff161461128e576040517f6697b23200000000000000000000000000000000000000000000000000000000815260040160405180910390fd5b6112988282612b68565b505050565b803373ffffffffffffffffffffffffffffffffffffffff1660035f8381526020019081526020015f206001015f9054906101000a900473ffffffffffffffffffffffffffffffffffffffff1673ffffffffffffffffffffffffffffffffffffffff16148061131357506113125f5f1b33611a61565b5b611352576040517f08c379a000000000000000000000000000000000000000000000000000000000815260040161134990613d9b565b60405180910390fd5b5f60035f8481526020019081526020015f2090505f60048111156113795761137861331e565b5b816009015f9054906101000a900460ff16600481111561139c5761139b61331e565b5b146113dc576040517f08c379a00000000000000000000000000000000000000000000000000000000081526004016113d390613e03565b60405180910390fd5b6004816009015f6101000a81548160ff021916908360048111156114035761140261331e565b5b0217905550827f9e6f41eac6f6a74875e16e83e67ca08af1a9d9ae09530faae78ec72b38b6039060405160405180910390a2505050565b6005602052815f5260405f20602052805f5260405f205f9150915050805f015f9054906101000a900473ffffffffffffffffffffffffffffffffffffffff1690806001015490806002015490806003015f9054906101000a900460ff16908060040154905085565b5f60045f8381526020019081526020015f20805490509050919050565b6003602052805f5260405f205f91509050805f015490806001015f9054906101000a900473ffffffffffffffffffffffffffffffffffffffff169080600201805461150990613d21565b80601f016020809104026020016040519081016040528092919081815260200182805461153590613d21565b80156115805780601f1061155757610100808354040283529160200191611580565b820191905f5260205f20905b81548152906001019060200180831161156357829003601f168201915b50505050509080600301805461159590613d21565b80601f01602080910402602001604051908101604052809291908181526020018280546115c190613d21565b801561160c5780601f106115e35761010080835404028352916020019161160c565b820191905f5260205f20905b8154815290600101906020018083116115ef57829003601f168201915b505050505090806004015f9054906101000a900460ff169080600501805461163390613d21565b80601f016020809104026020016040519081016040528092919081815260200182805461165f90613d21565b80156116aa5780601f10611681576101008083540402835291602001916116aa565b820191905f5260205f20905b81548152906001019060200180831161168d57829003601f168201915b505050505090806006015490806007015490806008015490806009015f9054906101000a900460ff169080600a015490508b565b7f59a1c48e5837ad7a7f3dcedcbe129bf3249ec4fbf651fd4f5e2600ead39fe2f581565b61170a612c52565b6117135f612cd9565b565b5f7f828634d95e775031b9ff576b159a8509d3053581a8c9c4d7d86899e0afcd882f61174081612a64565b5f8511611782576040517f08c379a000000000000000000000000000000000000000000000000000000000815260040161177990613e6b565b60405180910390fd5b5f84116117c4576040517f08c379a00000000000000000000000000000000000000000000000000000000081526004016117bb90613ed3565b60405180910390fd5b60025f8154809291906117d690613f1e565b91905055505f85426117e89190613f65565b90505f85826117f79190613f65565b905060405180610160016040528060025481526020013373ffffffffffffffffffffffffffffffffffffffff1681526020018c81526020018b81526020018a60058111156118485761184761331e565b5b81526020018981526020018381526020018281526020018681526020015f60048111156118785761187761331e565b5b81526020014281525060035f60025481526020019081526020015f205f820151815f01556020820151816001015f6101000a81548173ffffffffffffffffffffffffffffffffffffffff021916908373ffffffffffffffffffffffffffffffffffffffff16021790555060408201518160020190816118f79190614140565b50606082015181600301908161190d9190614140565b506080820151816004015f6101000a81548160ff021916908360058111156119385761193761331e565b5b021790555060a08201518160050190816119529190614140565b5060c0820151816006015560e082015181600701556101008201518160080155610120820151816009015f6101000a81548160ff0219169083600481111561199d5761199c61331e565b5b021790555061014082015181600a01559050503373ffffffffffffffffffffffffffffffffffffffff166002547f343945158c3ee8ca4e8e34935f897a04758be7c56b5ce6ed61fee7b9780d13488d8c6040516119fb92919061420f565b60405180910390a36002549350505050979650505050505050565b7f828634d95e775031b9ff576b159a8509d3053581a8c9c4d7d86899e0afcd882f81565b5f5f5f9054906101000a900473ffffffffffffffffffffffffffffffffffffffff16905090565b5f60015f8481526020019081526020015f205f015f8373ffffffffffffffffffffffffffffffffffffffff1673ffffffffffffffffffffffffffffffffffffffff1681526020019081526020015f205f9054906101000a900460ff16905092915050565b6004602052815f5260405f208181548110611ade575f80fd5b905f5260205f20015f915091509054906101000a900473ffffffffffffffffffffffffffffffffffffffff1681565b5f5f5f60055f8681526020019081526020015f205f8573ffffffffffffffffffffffffffffffffffffffff1673ffffffffffffffffffffffffffffffffffffffff1681526020019081526020015f206040518060a00160405290815f82015f9054906101000a900473ffffffffffffffffffffffffffffffffffffffff1673ffffffffffffffffffffffffffffffffffffffff1673ffffffffffffffffffffffffffffffffffffffff1681526020016001820154815260200160028201548152602001600382015f9054906101000a900460ff161515151581526020016004820154815250509050806060015115611c1057600181604001519250925050611c18565b5f5f92509250505b9250929050565b5f5f1b81565b6006602052805f5260405f205f91509050805f015f9054906101000a900473ffffffffffffffffffffffffffffffffffffffff16908060010154908060020154905083565b825f81118015611c7c57506002548111155b611cbb576040517f08c379a0000000000000000000000000000000000000000000000000000000008152600401611cb290613a46565b60405180910390fd5b5f60035f8681526020019081526020015f2090508060060154421015611d16576040517f08c379a0000000000000000000000000000000000000000000000000000000008152600401611d0d90614287565b60405180910390fd5b80600701544210611d5c576040517f08c379a0000000000000000000000000000000000000000000000000000000008152600401611d53906142ef565b60405180910390fd5b5f6004811115611d6f57611d6e61331e565b5b816009015f9054906101000a900460ff166004811115611d9257611d9161331e565b5b14611dd2576040517f08c379a0000000000000000000000000000000000000000000000000000000008152600401611dc990614357565b60405180910390fd5b5f60055f8781526020019081526020015f205f3373ffffffffffffffffffffffffffffffffffffffff1673ffffffffffffffffffffffffffffffffffffffff1681526020019081526020015f2090505f816004015411611e67576040517f08c379a0000000000000000000000000000000000000000000000000000000008152600401611e5e906143bf565b60405180910390fd5b806003015f9054906101000a900460ff1615611eb8576040517f08c379a0000000000000000000000000000000000000000000000000000000008152600401611eaf90614427565b60405180910390fd5b5f8585604051602001611ecc92919061449f565b60405160208183030381529060405280519060200120905081600101548114611f2a576040517f08c379a0000000000000000000000000000000000000000000000000000000008152600401611f2190614536565b60405180910390fd5b8260080154861015611f71576040517f08c379a0000000000000000000000000000000000000000000000000000000008152600401611f689061459e565b60405180910390fd5b8582600201819055506001826003015f6101000a81548160ff0219169083151502179055503373ffffffffffffffffffffffffffffffffffffffff16877f86d2fbc9069d34216ebc65b38ce840528d3f8cac0c86d2aaa7ab6a9db8bc35d388604051611fdd9190613080565b60405180910390a350505050505050565b813373ffffffffffffffffffffffffffffffffffffffff1660035f8381526020019081526020015f206001015f9054906101000a900473ffffffffffffffffffffffffffffffffffffffff1673ffffffffffffffffffffffffffffffffffffffff16148061206457506120635f5f1b33611a61565b5b6120a3576040517f08c379a000000000000000000000000000000000000000000000000000000000815260040161209a90613d9b565b60405180910390fd5b60085f8481526020019081526020015f205f9054906101000a900460ff1615612101576040517f08c379a00000000000000000000000000000000000000000000000000000000081526004016120f890614606565b60405180910390fd5b600360048111156121155761211461331e565b5b60035f8581526020019081526020015f206009015f9054906101000a900460ff1660048111156121485761214761331e565b5b14612188576040517f08c379a000000000000000000000000000000000000000000000000000000000815260040161217f9061466e565b60405180910390fd5b5f73ffffffffffffffffffffffffffffffffffffffff1660065f8581526020019081526020015f205f015f9054906101000a900473ffffffffffffffffffffffffffffffffffffffff1673ffffffffffffffffffffffffffffffffffffffff1603612228576040517f08c379a000000000000000000000000000000000000000000000000000000000815260040161221f906146d6565b60405180910390fd5b6001821015801561223a575060058211155b612279576040517f08c379a00000000000000000000000000000000000000000000000000000000081526004016122709061473e565b60405180910390fd5b5f60065f8581526020019081526020015f205f015f9054906101000a900473ffffffffffffffffffffffffffffffffffffffff1690505f60075f8373ffffffffffffffffffffffffffffffffffffffff1673ffffffffffffffffffffffffffffffffffffffff1681526020019081526020015f209050806004015f9054906101000a900460ff1661233f576040517f08c379a0000000000000000000000000000000000000000000000000000000008152600401612336906147a6565b60405180910390fd5b83816005015f8282546123529190613f65565b925050819055506001816006015f82825461236d9190613f65565b92505081905550600160085f8781526020019081526020015f205f6101000a81548160ff0219169083151502179055508173ffffffffffffffffffffffffffffffffffffffff167fd664874752ab713fe29ab204b524a335c98c09c8ffbc0003860b17cf3398a77385836006015484600501546123ea91906147f1565b6040516123f8929190614821565b60405180910390a25050505050565b61241082610f81565b61241981612a64565b6124238383612b68565b50505050565b60075f3373ffffffffffffffffffffffffffffffffffffffff1673ffffffffffffffffffffffffffffffffffffffff1681526020019081526020015f206004015f9054906101000a900460ff16156124b6576040517f08c379a00000000000000000000000000000000000000000000000000000000081526004016124ad90614892565b60405180910390fd5b5f8451116124f9576040517f08c379a00000000000000000000000000000000000000000000000000000000081526004016124f0906148fa565b60405180910390fd5b6040518060e001604052808581526020018481526020018381526020018281526020016001151581526020015f81526020015f81525060075f3373ffffffffffffffffffffffffffffffffffffffff1673ffffffffffffffffffffffffffffffffffffffff1681526020019081526020015f205f820151815f01908161257f9190614140565b5060208201518160010190816125959190614140565b5060408201518160020190816125ab9190614140565b5060608201518160030190816125c19190614140565b506080820151816004015f6101000a81548160ff02191690831515021790555060a0820151816005015560c082015181600601559050506126227f80f9b792196f21120f021903634877a78a3dd5e8ef643701b99dae7bb938062d33612a78565b503373ffffffffffffffffffffffffffffffffffffffff167f76686aa361308f4a08557cca1a847299ce61e5602a3495cd359a599a1dca438c856040516126699190614918565b60405180910390a250505050565b61267f612c52565b5f73ffffffffffffffffffffffffffffffffffffffff168173ffffffffffffffffffffffffffffffffffffffff16036126ef575f6040517f1e4fbdf70000000000000000000000000000000000000000000000000000000081526004016126e691906136d5565b60405180910390fd5b6126f881612cd9565b50565b612703612e7a565b60075f8373ffffffffffffffffffffffffffffffffffffffff1673ffffffffffffffffffffffffffffffffffffffff1681526020019081526020015f206040518060e00160405290815f8201805461275a90613d21565b80601f016020809104026020016040519081016040528092919081815260200182805461278690613d21565b80156127d15780601f106127a8576101008083540402835291602001916127d1565b820191905f5260205f20905b8154815290600101906020018083116127b457829003601f168201915b505050505081526020016001820180546127ea90613d21565b80601f016020809104026020016040519081016040528092919081815260200182805461281690613d21565b80156128615780601f1061283857610100808354040283529160200191612861565b820191905f5260205f20905b81548152906001019060200180831161284457829003601f168201915b5050505050815260200160028201805461287a90613d21565b80601f01602080910402602001604051908101604052809291908181526020018280546128a690613d21565b80156128f15780601f106128c8576101008083540402835291602001916128f1565b820191905f5260205f20905b8154815290600101906020018083116128d457829003601f168201915b5050505050815260200160038201805461290a90613d21565b80601f016020809104026020016040519081016040528092919081815260200182805461293690613d21565b80156129815780601f1061295857610100808354040283529160200191612981565b820191905f5260205f20905b81548152906001019060200180831161296457829003601f168201915b50505050508152602001600482015f9054906101000a900460ff16151515158152602001600582015481526020016006820154815250509050919050565b6129c7612d9a565b60026129d96129d4612ddb565b612e04565b5f0181905550565b60016129f36129ee612ddb565b612e04565b5f0181905550565b5f7f01ffc9a7000000000000000000000000000000000000000000000000000000007bffffffffffffffffffffffffffffffffffffffffffffffffffffffff1916827bffffffffffffffffffffffffffffffffffffffffffffffffffffffff1916149050919050565b612a7581612a70612b61565b612e0d565b50565b5f612a838383611a61565b612b57576001805f8581526020019081526020015f205f015f8473ffffffffffffffffffffffffffffffffffffffff1673ffffffffffffffffffffffffffffffffffffffff1681526020019081526020015f205f6101000a81548160ff021916908315150217905550612af4612b61565b73ffffffffffffffffffffffffffffffffffffffff168273ffffffffffffffffffffffffffffffffffffffff16847f2f8788117e7eff1d82e926ec794901d17c78024a50270940304540a733656f0d60405160405180910390a460019050612b5b565b5f90505b92915050565b5f33905090565b5f612b738383611a61565b15612c48575f60015f8581526020019081526020015f205f015f8473ffffffffffffffffffffffffffffffffffffffff1673ffffffffffffffffffffffffffffffffffffffff1681526020019081526020015f205f6101000a81548160ff021916908315150217905550612be5612b61565b73ffffffffffffffffffffffffffffffffffffffff168273ffffffffffffffffffffffffffffffffffffffff16847ff6391f5c32d9c69d2a47ea670b442974b53935d1edc7fd64eb21e047a839171b60405160405180910390a460019050612c4c565b5f90505b92915050565b612c5a612b61565b73ffffffffffffffffffffffffffffffffffffffff16612c78611a3a565b73ffffffffffffffffffffffffffffffffffffffff1614612cd757612c9b612b61565b6040517f118cdaa7000000000000000000000000000000000000000000000000000000008152600401612cce91906136d5565b60405180910390fd5b565b5f5f5f9054906101000a900473ffffffffffffffffffffffffffffffffffffffff169050815f5f6101000a81548173ffffffffffffffffffffffffffffffffffffffff021916908373ffffffffffffffffffffffffffffffffffffffff1602179055508173ffffffffffffffffffffffffffffffffffffffff168173ffffffffffffffffffffffffffffffffffffffff167f8be0079c531659141344cd1fd0a4f28419497f9722a3daafe3b4186f6b6457e060405160405180910390a35050565b612da2612e5e565b15612dd9576040517f3ee5aeb500000000000000000000000000000000000000000000000000000000815260040160405180910390fd5b565b5f7f9b779b17422d0df92223018b32b4d1fa46e071723d6817e2486d003becc55f005f1b905090565b5f819050919050565b612e178282611a61565b612e5a5780826040517fe2517d3f000000000000000000000000000000000000000000000000000000008152600401612e51929190614938565b60405180910390fd5b5050565b5f6002612e71612e6c612ddb565b612e04565b5f015414905090565b6040518060e00160405280606081526020016060815260200160608152602001606081526020015f151581526020015f81526020015f81525090565b5f604051905090565b5f5ffd5b5f5ffd5b5f819050919050565b612ed981612ec7565b8114612ee3575f5ffd5b50565b5f81359050612ef481612ed0565b92915050565b5f60208284031215612f0f57612f0e612ebf565b5b5f612f1c84828501612ee6565b91505092915050565b5f7fffffffff0000000000000000000000000000000000000000000000000000000082169050919050565b612f5981612f25565b8114612f63575f5ffd5b50565b5f81359050612f7481612f50565b92915050565b5f60208284031215612f8f57612f8e612ebf565b5b5f612f9c84828501612f66565b91505092915050565b5f8115159050919050565b612fb981612fa5565b82525050565b5f602082019050612fd25f830184612fb0565b92915050565b5f819050919050565b612fea81612fd8565b82525050565b5f6020820190506130035f830184612fe1565b92915050565b61301281612fd8565b811461301c575f5ffd5b50565b5f8135905061302d81613009565b92915050565b5f5f6040838503121561304957613048612ebf565b5b5f61305685828601612ee6565b92505060206130678582860161301f565b9150509250929050565b61307a81612ec7565b82525050565b5f6020820190506130935f830184613071565b92915050565b5f602082840312156130ae576130ad612ebf565b5b5f6130bb8482850161301f565b91505092915050565b5f73ffffffffffffffffffffffffffffffffffffffff82169050919050565b5f6130ed826130c4565b9050919050565b6130fd816130e3565b8114613107575f5ffd5b50565b5f81359050613118816130f4565b92915050565b5f5f6040838503121561313457613133612ebf565b5b5f6131418582860161301f565b92505060206131528582860161310a565b9150509250929050565b5f6020828403121561317157613170612ebf565b5b5f61317e8482850161310a565b91505092915050565b5f81519050919050565b5f82825260208201905092915050565b8281835e5f83830152505050565b5f601f19601f8301169050919050565b5f6131c982613187565b6131d38185613191565b93506131e38185602086016131a1565b6131ec816131af565b840191505092915050565b5f60e0820190508181035f83015261320f818a6131bf565b9050818103602083015261322381896131bf565b9050818103604083015261323781886131bf565b9050818103606083015261324b81876131bf565b905061325a6080830186612fb0565b61326760a0830185613071565b61327460c0830184613071565b98975050505050505050565b5f5f6040838503121561329657613295612ebf565b5b5f6132a385828601612ee6565b92505060206132b48582860161310a565b9150509250929050565b6132c7816130e3565b82525050565b5f60a0820190506132e05f8301886132be565b6132ed6020830187612fe1565b6132fa6040830186613071565b6133076060830185612fb0565b6133146080830184613071565b9695505050505050565b7f4e487b71000000000000000000000000000000000000000000000000000000005f52602160045260245ffd5b6006811061335c5761335b61331e565b5b50565b5f81905061336c8261334b565b919050565b5f61337b8261335f565b9050919050565b61338b81613371565b82525050565b600581106133a2576133a161331e565b5b50565b5f8190506133b282613391565b919050565b5f6133c1826133a5565b9050919050565b6133d1816133b7565b82525050565b5f610160820190506133eb5f83018e613071565b6133f8602083018d6132be565b818103604083015261340a818c6131bf565b9050818103606083015261341e818b6131bf565b905061342d608083018a613382565b81810360a083015261343f81896131bf565b905061344e60c0830188613071565b61345b60e0830187613071565b613469610100830186613071565b6134776101208301856133c8565b613485610140830184613071565b9c9b505050505050505050505050565b5f5ffd5b5f5ffd5b7f4e487b71000000000000000000000000000000000000000000000000000000005f52604160045260245ffd5b6134d3826131af565b810181811067ffffffffffffffff821117156134f2576134f161349d565b5b80604052505050565b5f613504612eb6565b905061351082826134ca565b919050565b5f67ffffffffffffffff82111561352f5761352e61349d565b5b613538826131af565b9050602081019050919050565b828183375f83830152505050565b5f61356561356084613515565b6134fb565b90508281526020810184848401111561358157613580613499565b5b61358c848285613545565b509392505050565b5f82601f8301126135a8576135a7613495565b5b81356135b8848260208601613553565b91505092915050565b600681106135cd575f5ffd5b50565b5f813590506135de816135c1565b92915050565b5f5f5f5f5f5f5f60e0888a0312156135ff576135fe612ebf565b5b5f88013567ffffffffffffffff81111561361c5761361b612ec3565b5b6136288a828b01613594565b975050602088013567ffffffffffffffff81111561364957613648612ec3565b5b6136558a828b01613594565b96505060406136668a828b016135d0565b955050606088013567ffffffffffffffff81111561368757613686612ec3565b5b6136938a828b01613594565b94505060806136a48a828b01612ee6565b93505060a06136b58a828b01612ee6565b92505060c06136c68a828b01612ee6565b91505092959891949750929550565b5f6020820190506136e85f8301846132be565b92915050565b5f5f6040838503121561370457613703612ebf565b5b5f61371185828601612ee6565b925050602061372285828601612ee6565b9150509250929050565b5f60408201905061373f5f830185612fb0565b61374c6020830184613071565b9392505050565b5f6060820190506137665f8301866132be565b6137736020830185613071565b6137806040830184613071565b949350505050565b5f5f5f6060848603121561379f5761379e612ebf565b5b5f6137ac86828701612ee6565b93505060206137bd86828701612ee6565b925050604084013567ffffffffffffffff8111156137de576137dd612ec3565b5b6137ea86828701613594565b9150509250925092565b5f5f5f5f6080858703121561380c5761380b612ebf565b5b5f85013567ffffffffffffffff81111561382957613828612ec3565b5b61383587828801613594565b945050602085013567ffffffffffffffff81111561385657613855612ec3565b5b61386287828801613594565b935050604085013567ffffffffffffffff81111561388357613882612ec3565b5b61388f87828801613594565b925050606085013567ffffffffffffffff8111156138b0576138af612ec3565b5b6138bc87828801613594565b91505092959194509250565b5f82825260208201905092915050565b5f6138e282613187565b6138ec81856138c8565b93506138fc8185602086016131a1565b613905816131af565b840191505092915050565b61391981612fa5565b82525050565b61392881612ec7565b82525050565b5f60e083015f8301518482035f86015261394882826138d8565b9150506020830151848203602086015261396282826138d8565b9150506040830151848203604086015261397c82826138d8565b9150506060830151848203606086015261399682826138d8565b91505060808301516139ab6080860182613910565b5060a08301516139be60a086018261391f565b5060c08301516139d160c086018261391f565b508091505092915050565b5f6020820190508181035f8301526139f4818461392e565b905092915050565b7f54656e64657220646f6573206e6f7420657869737400000000000000000000005f82015250565b5f613a30601583613191565b9150613a3b826139fc565b602082019050919050565b5f6020820190508181035f830152613a5d81613a24565b9050919050565b7f52657665616c207068617365206e6f74206f76657200000000000000000000005f82015250565b5f613a98601583613191565b9150613aa382613a64565b602082019050919050565b5f6020820190508181035f830152613ac581613a8c565b9050919050565b7f416c726561647920636c6f7365640000000000000000000000000000000000005f82015250565b5f613b00600e83613191565b9150613b0b82613acc565b602082019050919050565b5f6020820190508181035f830152613b2d81613af4565b9050919050565b7f4e487b71000000000000000000000000000000000000000000000000000000005f52603260045260245ffd5b5f819050919050565b5f819050919050565b5f613b8d613b88613b8384613b61565b613b6a565b612ec7565b9050919050565b613b9d81613b73565b82525050565b5f602082019050613bb65f830184613b94565b92915050565b7f54656e646572206e6f74206f70656e00000000000000000000000000000000005f82015250565b5f613bf0600f83613191565b9150613bfb82613bbc565b602082019050919050565b5f6020820190508181035f830152613c1d81613be4565b9050919050565b7f42696464696e6720646561646c696e65207061737365640000000000000000005f82015250565b5f613c58601783613191565b9150613c6382613c24565b602082019050919050565b5f6020820190508181035f830152613c8581613c4c565b9050919050565b7f42696420616c7265616479207375626d697474656400000000000000000000005f82015250565b5f613cc0601583613191565b9150613ccb82613c8c565b602082019050919050565b5f6020820190508181035f830152613ced81613cb4565b9050919050565b7f4e487b71000000000000000000000000000000000000000000000000000000005f52602260045260245ffd5b5f6002820490506001821680613d3857607f821691505b602082108103613d4b57613d4a613cf4565b5b50919050565b7f4e6f742063726561746f72206f722061646d696e0000000000000000000000005f82015250565b5f613d85601483613191565b9150613d9082613d51565b602082019050919050565b5f6020820190508181035f830152613db281613d79565b9050919050565b7f43616e6e6f742063616e63656c20636c6f7365642074656e64657200000000005f82015250565b5f613ded601b83613191565b9150613df882613db9565b602082019050919050565b5f6020820190508181035f830152613e1a81613de1565b9050919050565b7f42696464696e67206475726174696f6e20746f6f2073686f72740000000000005f82015250565b5f613e55601a83613191565b9150613e6082613e21565b602082019050919050565b5f6020820190508181035f830152613e8281613e49565b9050919050565b7f52657665616c206475726174696f6e20746f6f2073686f7274000000000000005f82015250565b5f613ebd601983613191565b9150613ec882613e89565b602082019050919050565b5f6020820190508181035f830152613eea81613eb1565b9050919050565b7f4e487b71000000000000000000000000000000000000000000000000000000005f52601160045260245ffd5b5f613f2882612ec7565b91507fffffffffffffffffffffffffffffffffffffffffffffffffffffffffffffffff8203613f5a57613f59613ef1565b5b600182019050919050565b5f613f6f82612ec7565b9150613f7a83612ec7565b9250828201905080821115613f9257613f91613ef1565b5b92915050565b5f819050815f5260205f209050919050565b5f6020601f8301049050919050565b5f82821b905092915050565b5f60088302613ff47fffffffffffffffffffffffffffffffffffffffffffffffffffffffffffffffff82613fb9565b613ffe8683613fb9565b95508019841693508086168417925050509392505050565b5f61403061402b61402684612ec7565b613b6a565b612ec7565b9050919050565b5f819050919050565b61404983614016565b61405d61405582614037565b848454613fc5565b825550505050565b5f5f905090565b614074614065565b61407f818484614040565b505050565b5f5b828110156140a55761409a5f82840161406c565b600181019050614086565b505050565b601f8211156140f857828211156140f7576140c481613f98565b6140cd83613faa565b6140d685613faa565b60208610156140e3575f90505b8083016140f282840382614084565b505050505b5b505050565b5f82821c905092915050565b5f6141185f19846008026140fd565b1980831691505092915050565b5f6141308383614109565b9150826002028217905092915050565b61414982613187565b67ffffffffffffffff8111156141625761416161349d565b5b61416c8254613d21565b6141778282856140aa565b5f60209050601f8311600181146141a8575f8415614196578287015190505b6141a08582614125565b865550614207565b601f1984166141b686613f98565b5f5b828110156141dd578489015182556001820191506020850194506020810190506141b8565b868310156141fa57848901516141f6601f891682614109565b8355505b6001600288020188555050505b505050505050565b5f6040820190508181035f83015261422781856131bf565b90506142366020830184613382565b9392505050565b7f42696464696e67207374696c6c206163746976650000000000000000000000005f82015250565b5f614271601483613191565b915061427c8261423d565b602082019050919050565b5f6020820190508181035f83015261429e81614265565b9050919050565b7f52657665616c207068617365206f7665720000000000000000000000000000005f82015250565b5f6142d9601183613191565b91506142e4826142a5565b602082019050919050565b5f6020820190508181035f830152614306816142cd565b9050919050565b7f54656e64657220697320636c6f736564000000000000000000000000000000005f82015250565b5f614341601083613191565b915061434c8261430d565b602082019050919050565b5f6020820190508181035f83015261436e81614335565b9050919050565b7f4e6f2062696420666f756e6400000000000000000000000000000000000000005f82015250565b5f6143a9600c83613191565b91506143b482614375565b602082019050919050565b5f6020820190508181035f8301526143d68161439d565b9050919050565b7f416c72656164792072657665616c6564000000000000000000000000000000005f82015250565b5f614411601083613191565b915061441c826143dd565b602082019050919050565b5f6020820190508181035f83015261443e81614405565b9050919050565b5f819050919050565b61445f61445a82612ec7565b614445565b82525050565b5f81905092915050565b5f61447982613187565b6144838185614465565b93506144938185602086016131a1565b80840191505092915050565b5f6144aa828561444e565b6020820191506144ba828461446f565b91508190509392505050565b7f48617368206d69736d617463682120496e76616c696420616d6f756e742f73655f8201527f6372657400000000000000000000000000000000000000000000000000000000602082015250565b5f614520602483613191565b915061452b826144c6565b604082019050919050565b5f6020820190508181035f83015261454d81614514565b9050919050565b7f4269642062656c6f77206d696e696d756d0000000000000000000000000000005f82015250565b5f614588601183613191565b915061459382614554565b602082019050919050565b5f6020820190508181035f8301526145b58161457c565b9050919050565b7f416c7265616479207261746564000000000000000000000000000000000000005f82015250565b5f6145f0600d83613191565b91506145fb826145bc565b602082019050919050565b5f6020820190508181035f83015261461d816145e4565b9050919050565b7f54656e646572206e6f742066696e616c697a65640000000000000000000000005f82015250565b5f614658601483613191565b915061466382614624565b602082019050919050565b5f6020820190508181035f8301526146858161464c565b9050919050565b7f4e6f2077696e6e657220746f20726174650000000000000000000000000000005f82015250565b5f6146c0601183613191565b91506146cb8261468c565b602082019050919050565b5f6020820190508181035f8301526146ed816146b4565b9050919050565b7f526174696e67206d75737420626520312d3500000000000000000000000000005f82015250565b5f614728601283613191565b9150614733826146f4565b602082019050919050565b5f6020820190508181035f8301526147558161471c565b9050919050565b7f57696e6e6572206e6f74207265676973746572656400000000000000000000005f82015250565b5f614790601583613191565b915061479b8261475c565b602082019050919050565b5f6020820190508181035f8301526147bd81614784565b9050919050565b7f4e487b71000000000000000000000000000000000000000000000000000000005f52601260045260245ffd5b5f6147fb82612ec7565b915061480683612ec7565b925082614816576148156147c4565b5b828204905092915050565b5f6040820190506148345f830185613071565b6148416020830184613071565b9392505050565b7f416c7265616479207265676973746572656400000000000000000000000000005f82015250565b5f61487c601283613191565b915061488782614848565b602082019050919050565b5f6020820190508181035f8301526148a981614870565b9050919050565b7f4e616d65207265717569726564000000000000000000000000000000000000005f82015250565b5f6148e4600d83613191565b91506148ef826148b0565b602082019050919050565b5f6020820190508181035f830152614911816148d8565b9050919050565b5f6020820190508181035f83015261493081846131bf565b905092915050565b5f60408201905061494b5f8301856132be565b6149586020830184612fe1565b939250505056fea2646970667358221220d993083a9c32359d947542269c91e69da8d3a0754da768da7a510381738066e864736f6c63430008210033","linkReferences":{}},"methodIdentifiers":{"AUDITOR_ROLE()":"6e1d616e","BIDDER_ROLE()":"0ce526d1","CREATOR_ROLE()":"8aeda25a","DEFAULT_ADMIN_ROLE()":"a217fddf","bids(uint256,address)":"3f1ffcec","cancelTender(uint256)":"3a74e070","closeTender(uint256)":"00cda3da","companies(address)":"355e6ce8","createTender(string,string,uint8,string,uint256,uint256,uint256)":"7f9490ef","getBidDetails(uint256,address)":"9fc89aed","getBidsCount(uint256)":"4008f9c0","getCompanyProfile(address)":"fb1aac35","getRoleAdmin(bytes32)":"248a9ca3","grantRole(bytes32,address)":"2f2ff15d","hasRole(bytes32,address)":"91d14854","owner()":"8da5cb5b","rateBidder(uint256,uint256)":"b6502b95","registerCompany(string,string,string,string)":"e8a733a2","renounceOwnership()":"715018a6","renounceRole(bytes32,address)":"36568abe","revealBid(uint256,uint256,string)":"a489d5d7","revokeRole(bytes32,address)":"d547741f","submitBid(uint256,bytes32)":"19fcfab1","supportsInterface(bytes4)":"01ffc9a7","tenderBidders(uint256,uint256)":"9b0a9a1a","tenderCount()":"1f058776","tenderRated(uint256)":"12aca7d5","tenders(uint256)":"465e1def","transferOwnership(address)":"f2fde38b","winners(uint256)":"a2fb1175"},"id":24}